:020000040800F2
:1000000000100020D90100088D1D00088F1D000878
:1000100000000000000000000000000000000000E0
:10002000000000000000000000000000911D00081A
:100030000000000000000000931D0008951D00084E
:100040006D100008000000006D1000086D10000821
:100050006D100008A91D00086D100008C51D0008DE
:10006000000000006D1000086D1000086D10000801
:100070006D1000086D1000086D10000800000000F1
:10008000DD1D000800000000000000006D100008E9
:1000900000000000B51E0008B71E00086D10000823
:1000A000000000006D10000800000000C11D0008E5
:1000B0000000000000000000000000000000000040
:1000C00030B583B000F086FF314B324A1360324ABC
:1000D0001360324B324A03E0116819600433043272
:1000E00030498B42F8D32B4B1A682F4B9A4200D0E1
:1000F000FEE7294B1A682D4B9A42F9D1244B2C4A22
:1001000013602C4A13602C4B02E000221A60043367
:100110002A4A9342F9D3264B1B68002B03D1254B67
:100120001B68002B00D0FEE700F058FF694601A8CD
:1001300000F0E4FE224B234CE41AA4100025AC424C
:1001400014DC214B214CE41AA4100025AC4213DC32
:100150000099019801F0FAF905001D4B1D4CE41AB5
:10016000A410002C0EDC280000F098FEAA00144B0E
:10017000D35898470135E2E7AA00134BD358984764
:100180000135E3E7013CA200114BD3589847E8E75B
:10019000BABADECA000000209C0000200000002047
:1001A000F0380008A00000207856341232547698B7
:1001B000A0000020A8060020A0000020AC0600201F
:1001C00050020008500200085002000850020008C7
:1001D000500200085002000810B5FFF771FF00BE82
:1001E000FEE704207146084202D0EFF3098001E0E7
:1001F000EFF3088071460B4A104770B504000D00FC
:10020000044800F08DFE2900200000F0EBFE00BE47
:10021000FEE7C046D437000800BEFEE700BEFEE79A
:0802200070470000FB0100081B
:10022800F038000800000020A0000020F038000886
:100238000000000000000000A0000020AC06002024
:080248000000000000000000AE
:1002500010B5040000F07AFAFA21890002F008FDD6
:1002600000F098F8002221000120404200F02EF812
:10027000002010BD10B5064A136810210B4313600F
:100280000020FFF7E5FF01F06BFD002010BDC04628
:1002900000200240024A1368013313607047C046D1
:1002A000A4000020014B18687047C046A40000203D
:1002B00010B582B00190FFF7F5FF0400FFF7F2FFE1
:1002C000001B019B9842F9D302B010BD70B5040029
:1002D0000D00032913D8002C16DBA3081648C033E1
:1002E0009B00195803221440E400FC321600A6407B
:1002F000B143AD012A40A2400A431A5070BD9D216E
:100300000E4800F003FEE6E7E4B20F232340083B6B
:100310009B0806339B000A4A9446634458680322AC
:100320001440E400FF210A00A2409043AD0129409F
:10033000A14001435960E1E700E100E020360008F8
:1003400000ED00E010B5041E06DB1F231C401E3B21
:10035000A340044A136010BDAD21034800F0D6FD50
:10036000F3E7C04600E100E02036000810B5041EA7
:1003700007DB1F231C401E3BA340802203498B50F8
:1003800010BDBD21024800F0C1FDF2E700E100E030
:100390002036000801380A4B98420FD8094A5060AD
:1003A0000948036A1B021B0AC02109060B430362AA
:1003B0000023936007331360002070470120FCE79F
:1003C000FFFFFF0010E000E000ED00E0F0B5CE46DA
:1003D000474680B583B007000C009023DB059842A8
:1003E0000FD08B4B98420CD08A4B984209D08A4B45
:1003F000984206D0894B984203D0C321884800F028
:1004000085FD23681B0425D06368012B1DD9112BA2
:100410001BD0022B19D0122B17D0824A934214D032
:10042000814A934211D0814A93420ED0804A93422E
:100430000BD0804A934208D07F4A934205D0032BC9
:1004400003D0C521764800F061FDA368022B06D8D1
:100450000025A6E0C421724800F058FDD4E7C6216B
:100460006F4800F053FDF3E79023DB059F4206D071
:10047000674B9F4203D0D521694800F047FD2369AF
:10048000062B0FD8E90808318900CA5907232B40E9
:100490009B000F209840824320699840030013433B
:1004A000CB518DE0D6215E4800F030FDEAE7E368ED
:1004B000012B05D9032B03D0EA21594800F026FD72
:1004C000BB6842461340E26849468A401343BB601A
:1004D0007A6801231900A9408A43616809090B4021
:1004E000AB4013437B60FB6842461340A268494619
:1004F0008A401343FB606368DB0051D54F4A916922
:10050000012319439161926913400193019BAB0848
:100510009A1C92004A49515803222A4092000F2007
:10052000904081439020C005874266D0384887427A
:1005300065D03848874264D0374887425BD0052071
:10054000904002000A4302339B003D495A503D4B04
:100550001A68F343190011406068C00301D53243A3
:100560001100384A11605268110019406068800318
:1005700001D532431100334A51609268110019408D
:100580006068C00201D5324311002E4A9160D268E2
:1005900013406168890201D533001343294AD360AF
:1005A000013523681A00EA402DD00126AE401E40D6
:1005B000F6D06368022B00D156E7122B00D153E727
:1005C0003A686B0099460323190048468140C943A5
:1005D00088460A4061680B40834013433B60636870
:1005E0005A1E012A00D862E7112B00D15FE7122BB7
:1005F00000D078E75BE70320A2E70020A0E7012016
:100600009EE702209CE703B00CBC90469946F0BDE3
:100610000004004800080048000C0048001400488E
:1006200054360008000011100000211000003110A5
:1006300000001210000022100000321000100240D2
:10064000000001400004014070B505000C1E04D0FC
:100650002B69234207D1002070BD9021FF31034850
:1006600000F054FCF4E70120F6E7C04654360008D9
:1006700070B506000C00150000290AD0012D04D920
:10068000B021FF31074800F041FC002D07D1B462D2
:1006900070BDD7214900034800F038FCEEE7B46193
:1006A000F6E7C0465436000870B505000C1E03D0AE
:1006B0006B695C406C6170BDE2214900014800F04B
:1006C00025FCF5E75436000810B5054B5B69184268
:1006D00000D110BD024B586100F040FDF9E7C04663
:1006E0000004014010B588B0144C1022210004A869
:1006F00002F050FB210010311022684602F04AFB44
:100700000F4B5A680C231340082B13D1910C07335D
:10071000194004A8445C0A49C96A0B406946C95C8F
:10072000D30302D40748604305E0074802F0A0FA6B
:10073000604300E0044808B010BDC046843600089D
:100740000010024000093D0000127A0010B5FFF7CA
:10075000C9FF054B5A6812090F231340034AD35CA3
:10076000D840034B186010BD00100240A4360008AA
:100770001C000020F0B5C64600B582B007000C0092
:1007800015001E00FFF78EFD804601E0731C10D19E
:100790003A6893682340AB4245D0C023DB009C42BB
:1007A000F4D1002DF2D1137BDBB26A46D371D37939
:1007B000ECE7002E05D0FFF775FD4346C01A8642D0
:1007C000E6D83A685368E0218B43536082235B008C
:1007D0007A689A420CD080239B01BA6A9A4216D05A
:1007E00001225D23FA540022013BFA5403201BE04E
:1007F000BB6880221202934203D08022D20093422F
:10080000E9D13A68136840218B431360E3E73A6803
:10081000136807490B4013603A68116880239B01F5
:100820000B431360DCE7002002B004BC9046F0BD2F
:10083000FFDF0000F0B5C64600B505000F0016004A
:100840001C00FFF72FFD80462B689B683B40B3429E
:100850003BD0631CF8D0002C05D0FFF723FD4346A6
:10086000C01A8442F0D82A685368E0218B43536051
:1008700082235B006A689A420CD080239B01AA6A9B
:100880009A4216D001225D23EA540022013BEA5429
:1008900003201BE0AB6880221202934203D0802227
:1008A000D2009342E9D12A68136840218B43136038
:1008B000E3E72A68136807490B4013602A68116848
:1008C00080239B010B431360DCE7002004BC9046AF
:1008D000F0BDC046FFDF000070B504000D000B0046
:1008E0000022C0214901FFF745FF002805D0202341
:1008F000226E13432366032070BD2B00002280214B
:100900002000FFF797FF0028F6D02023226E134324
:1009100023660320F0E7000070B5041E00D133E128
:100920009A4B02689A4203D0EE21994800F0EEFA01
:100930006368002B07D082225200934203D0EF213C
:10094000934800F0E3FAA368002B0BD08022D2007A
:10095000934207D080221202934203D0F0218C48A8
:1009600000F0D4FAE368F0221201934233D0013A46
:10097000FF3A93422FD0013AFF3A93422BD0013AEB
:10098000FF3A934227D0013AFF3A934223D0013AEB
:10099000FF3A93421FD0013AFF3A93421BD0013AEB
:1009A000FF3A934217D0013AFF3A934213D0013AEB
:1009B000FF3A93420FD0013AFF3A93420BD0013AEB
:1009C000FF3A934207D0013AFF3A934203D0F12114
:1009D0006F4800F09BFA2369002B05D0022B03D04F
:1009E000F2216B4800F092FA6369012B03D9F321DD
:1009F000674800F08BFAA36980229200934209D0E5
:100A0000002B07D08022D202934203D0F421604809
:100A100000F07CFA636B082B02D0002B00D090E032
:100A2000E369002B11D0082B0FD0102B0DD0182B01
:100A30000BD0202B09D0282B07D0302B05D0382BFA
:100A400003D0F621524800F061FA236A002B05D04A
:100A5000802B03D0F7214E4800F058FA636A002B30
:100A600005D0102B03D0F821494800F04FFAA36AB3
:100A7000002B07D080229201934203D0F9214448F1
:100A800000F044FAE36A013B424A93425ED8236B8A
:100A9000022B60D85D23E35C002B61D002225D2332
:100AA000E2542268136840218B431360E368E0221C
:100AB000D20093425BD90021F0221201934205D06B
:100AC000E022D200934201D00022A262226B002ACF
:100AD00005D1E022D20093424CD90223236322683D
:100AE0006368A0680343206903436069034380206F
:100AF0008000A56928400343E0690343206A03435B
:100B0000A06A03431360236B022B36D02268608BEC
:100B100004230340606A0343606B0343E0680343BC
:100B20000B4353602368E26A1A612268D3691A4949
:100B30000B40D3610023236601225D33E254002081
:100B400070BDF521124800F0E1F969E7FA2110487B
:100B500000F0DCF99BE7FB210D4800F0D7F999E79D
:100B600000225C33E254200001F0BEFE96E78021B3
:100B70004901A1E701232363B1E7226810688023BC
:100B80001B0103431360C1E70120D9E70030014096
:100B9000B4360008FEFF0000FFF70000F0B585B096
:100BA00007000D0000921C000A9EFFF77BFB0190DE
:100BB000BB68002B15D15C23FB5C012B00D160E1ED
:100BC00001225C23FA540133FB5C012B0ED002247A
:100BD00001225D23FA540022013BFA54200005B0A3
:100BE000F0BDA949A94800F091F9E4E7002D00D132
:100BF00041E10099002900D13FE1002C00D13EE104
:100C000004325D23FA5400233B6639644623FC52C8
:100C1000023BFC52BD63FC87BC8780239B01BA6A00
:100C20009A421BD0E023DB00FA689A4203D846239D
:100C3000FB5A012B1ED93A68536895490B40536003
:100C40003B681A68520603D41A6840210A431A60A6
:100C5000E023DB00FA689A4227D876E03A68136806
:100C60008C490B4013603A68116880239B010B4349
:100C70001360D7E73A68516880235B010B435360E8
:100C8000DEE74623FB5A002B0DD03B689A68D2075B
:100C900009D5DB683A6C13803B6C02333B64462217
:100CA000BB5A013BBB52731C25D1FB8F002B04D1D7
:100CB0004622BA5A002A00D187E0002BE1D03B68D7
:100CC0009A689207DDD5BA6B1288DA60BB6B023383
:100CD000BB63FB8F013B9BB2FB87002BD1D18023F1
:100CE0009B01BA6A9A42CCD13A68116880235B01B1
:100CF0000B431360C5E7FFF7D5FA019BC01A864284
:100D0000D3D8032464E7BB6B591CB9631B781373F6
:100D1000FB8F013BFB8730E04623FB5A002B12D0B0
:100D20003A689168C9070ED5012B3CD9D3683A6C53
:100D300013803B6C02333B644622BB5A023B9BB29E
:100D4000BB52012B28D9731C37D1FB8F002B03D149
:100D50004622BA5A002A38D0002BDDD03A68916872
:100D60008907D9D5012BCED9BB6B1B88D360BB6B50
:100D70000233BB63FB8F023BFB87FB8F002BCBD186
:100D800080239B01BA6A9A42C6D13A6811688023CF
:100D90005B010B431360BFE73A68516880235B0136
:100DA0000B435360CFE73B6C591C3964127B1A70BC
:100DB0004622BB5A013BBB52C5E7FFF773FA019BC2
:100DC000C01A8642C1D8032402E780239B01BA6A75
:100DD0009A4218D03B689A68D2064AD50222396EE8
:100DE0000A433A662C4A9A60012431003800FFF722
:100DF00073FD002801D020233B663B6E002B00D101
:100E0000E6E60124E4E63300012201213800FFF781
:100E100011FD002805D002233A6E13433B660324DC
:100E2000D6E6F0231B01FA689A4215D03B681B7B7B
:100E300002AAD380D3883B6B022BCBD13300012293
:100E400011003800FFF7F6FC00280CD002233A6EA0
:100E500013433B660324BBE63B68DB689BB202AAF4
:100E6000D380D388B6E73B681B7B02AAD380D388A4
:100E7000B0E70024B9E70124AAE60124A8E601248A
:100E8000A6E60224AAE6C0461F030000B436000806
:100E9000FFEFFFFFFFDF0000EFFF0000FEE70000B5
:100EA00010B5034800F052F80120FFF7F7FFC046E5
:100EB000E436000810B503000D4A1268002A0BD072
:100EC0000B4A1068033303229343C318094A934221
:100ED00006D8074A136010BD0749054A1160EFE7BD
:100EE00001F052FF0C23036001204042F3E7C046AB
:100EF000A8000020000C0020AC06002001230360A5
:100F0000014B0B607047C0460400002010B50A007A
:100F10000100024800F004F8FFF7C2FFF8360008AD
:100F20000FB400B583B004AB04CB01938021064815
:100F300001F074FF002803DD0100034800F046F8CB
:100F400003B008BC04B01847B000002010B504007E
:100F500001F031FF0100200000F038F801210248C3
:100F600000F034F810BDC04630370008F0B5C64672
:100F700000B586B0040001914356002B01D0019FBB
:100F80001CE00426301C211CABBE041C019806B0DA
:100F900004BC9046F0BD0022A25602A9CA540133F7
:100FA0000134B342F7D302AA904600224146CA5404
:100FB0000425281C4146ABBE8046BF1B002FE5D050
:100FC0003E00102F00D910260023EAE710B5FFF7E6
:100FD000CDFF10BD10B500F04BF810BD10B500F0FE
:100FE00077F810BD70B504000D001548FFF798FFA5
:100FF00021681448FFF794FF61681348FFF790FFDA
:10100000A1681248FFF78CFFE1681148FFF788FFDD
:1010100021691048FFF784FF61690F48FFF780FFDF
:10102000A1690E48FFF77CFFE1690D48FFF778FFE3
:101030000C48FFF775FF29000B48FFF771FF70BDE3
:1010400024370008343700084437000854370008B4
:1010500064370008743700088437000894370008A4
:10106000A4370008B4370008BC370008FEE70000CA
:10107000114B1A6801210A431A605A680F4802404E
:101080005A601A680E4802401A601A680D480240F9
:101090001A605A680C4802405A60DA6A0F2082438C
:1010A000DA621A6B094802401A635A6B8A435A6320
:1010B00000229A607047C046001002400CB8FF083A
:1010C000FFFFF6FEFFFFFBFFFFFFC0FFECFEFFFF91
:1010D00010B51D4B5A680C231340042B17D0082B56
:1010E00019D0002B03D0194A194B1A6002E0174A95
:1010F000174B1A60144B5A6812090F231340154AF4
:10110000D35CDBB2124A1168D940116010BD0F4A9E
:101110000F4B1A60EEE70C4B5C685A68A40C0F2169
:101120000C400234DB6A19400131D30306D507486D
:1011300001F09EFD4443064B1C60DBE70648444338
:10114000034B1C60D6E7C0460010024000127A0034
:101150001C0000200C00002000093D0010B501F02B
:1011600041FA10BD10B588B000281BD1134A51694F
:101170008024A40221435161536923400293029BBE
:1011800042000F4BD35A039301230493002305938A
:101190000333069380000B4BC05803A9FFF716F9E1
:1011A00008B010BD054A51698024E4022143516111
:1011B000536923400193019BE2E7C04600100240BF
:1011C000E83700082800002010B54200034BD15A30
:1011D0008000034BC058FFF737FA10BDE83700080E
:1011E0002800002010B54200034BD15A8000034B69
:1011F000C058FFF759FA10BDE83700082800002052
:1012000010B588B000281AD1124A51698024E4022E
:1012100021435161536923400293029B42000E4BCC
:10122000D35A03930123049305930233069380005A
:101230000A4BC05803A9FFF7C9F808B010BD054A0A
:1012400051698024A40221435161536923400193D1
:10125000019BE3E700100240E43700082000002073
:1012600010B5FFF71FF810BD10B5114B1B68012B0F
:1012700004D0104B1B78002B13D110BD0E4B1888D7
:1012800080B2132100F047FFFA20C000FFF710F8EA
:10129000BFF34F8F094A0A4BDA60BFF34F8FC04646
:1012A000FDE700F0CFFB0022024B1A70E5E7C046D5
:1012B000F805002034000020340100200400FA0565
:1012C00000ED00E070B5584A116880235B020B43C3
:1012D0001360FEF7E7FF05000024534B1B689B03D8
:1012E00007D4FEF7DFFF401B504B9842F5D901248D
:1012F000F3E74F4B1A6801218A431A601A681A6093
:101300001A680F310A431A60474A136849490B406B
:101310001360FEF7C7FF0500434B1B689B0108D510
:10132000FEF7C0FF401B6428F6D900F030FD012411
:10133000F2E73D4B5A6840490A405A605A683F49B3
:101340000A405A60002C24D15968802292020A4334
:101350005A6059688022D2020A435A605968802232
:1013600052020A435A60304A116880235B040B43DF
:101370001360FEF797FF05002B4B1B689B0111D4F0
:10138000FEF790FF401B6428F6D900F000FD012411
:10139000F2E7254B5968802252030A435A605A6883
:1013A0005A60E0E7204A536803218B435360002CC6
:1013B00012D1536801390B435360FEF773FF0400E9
:1013C000194B5B681B070BD4FEF76CFF001B6428EE
:1013D000F6D900F0DCFCF3E7134B5A685A60ECE7EF
:1013E000FFF7B4F9FA21890001F042FC0138144BEF
:1013F00098420DD8134A50601348036A1B021B0A17
:10140000C02109060B430362002393600733136076
:101410000D4A136A1B021B0A13620A4A136804214D
:101420000B43136070BDC0460010024088130000DB
:1014300000200240FFFFFFFEFFFFC3FFFFFFFEFF94
:10144000FFFFFF0010E000E000ED00E070B5354A5E
:10145000C42189005358FF2083434026334353500F
:1014600080235B021360304AD369FD380343D361A4
:101470002E4B1A687025AA431A602D4ADA622D4A4B
:101480009A621A6A012422431A62196A802252005F
:101490000A431A62196A802252010A431A621A6ABE
:1014A00025490A401A621A6A24490A401A6299694F
:1014B000A9439961D969A943D961D969204A1140E1
:1014C000D961DA693243DA61D9698022D2010A43EB
:1014D000DA61DA69683DAA43DA61DA6919490A40D2
:1014E000DA619A6903218A439A61DA698A43DA6187
:1014F000DA6915490A40DA61FA2149005963D9636A
:101500001964D9688143D960D968A943D960D96879
:1015100010229143D960D9680143D9601A682243E7
:101520001A6070BD00E100E00010024000040040BD
:10153000FFFF00007FBB0000FFFDFFFFFFDFFFFF9D
:10154000FF8FFFFFFFF7FFFFFFFCFFFF10B5FEF768
:1015500091FEFFF7B7FEFFF779FF0020FFF702FECD
:101560000120FFF7FFFD0020FFF74AFE0120FFF7F3
:1015700047FE01F057FA00F0BDFF00F025FA00F039
:10158000E5FFFFF771FEFAE7F8B50500FEF78AFE02
:101590000600002410E01048704307300F4901F0A6
:1015A000EDFB0E002F193E21300001F0E7FB0C4B44
:1015B0005B5C3B700134E4B2132CECD906E02300F1
:1015C000143B084AD35C2B550134E4B2332CF6D9D2
:1015D0002C1900232370F8BD9573C248FFFFFF3F0D
:1015E0002838000804380008F0B5CE46474680B5D4
:1015F000684CA5448C4651AC674D23002A0032CA82
:1016000032C312CA12C3002304E0C45C56AAD454E5
:1016100001339BB2332BF8D95A1C92B2802456A8BE
:10162000C45404E0002056AB9854013292B23D2AD3
:10163000F8D9531C9BB256A801248454A022C2544A
:10164000002212E0950056A8435D1B066C1C045D49
:1016500024042343AC1C045D24022343EC1C005DE2
:10166000034301A82B50013292B20F2AEAD910236A
:1016700018E0DA1E01A8920012581C00083CA400D1
:10168000245862401C000E3CA400245862401C00F8
:10169000103CA400245862401F24E2419C002250C8
:1016A00001339BB24F2BE4D900233C4A90463C4D7A
:1016B0003C4E3D493D4F24E03000684008406840C2
:1016C00081463B4A09E03B2B27D83000284308409D
:1016D0002A00324010438146364A1B243800E0413C
:1016E000040044441219980001AC04591219013342
:1016F0009BB2A84635000224E1410E0039004A445D
:1017000017004F2B0FD8132BD6D9272BDBD8080067
:10171000704068408146284ADFE708007040684012
:101720008146264AD9E7214B99464F4451971E4B93
:10173000CB1852931B4B99464E445396184B9946DF
:101740004D445495154C44445594002417E05733A8
:1017500003700132D2B2072A0FD8A30051A81B5838
:101760000720801A8000C3400F200340E0001018BB
:101770006044092BEBD83033EAE70134A4B2042CDF
:1017800001D80022E7E7A7239B009D440CBC9046AC
:101790009946F0BD64FDFFFFF0370008F0E1D2C3C9
:1017A00076543210FEDCBA9889ABCDEF0123456741
:1017B0009979825ADCBC1B8FA1EBD96ED6C162CA63
:1017C00010B500220B4B1A700B4C2000FFF7DCFE0B
:1017D0000A492000FFF708FF1421200000F0C8F993
:1017E000041E04D17822064B1A60200010BD00F0C0
:1017F000EBF8FAE7BE050020FC050020C405002038
:10180000B405002010B50400FFF7DEFC002825D148
:10181000002C11D1144BDA6970218A43DA61DA693C
:10182000DA615A6A0132DA6319690834A14319612D
:10183000DA682243DA6010BD0B4BDA690B490A40C3
:10184000DA61DA69DA615A6A01321A6419691024B4
:10185000A1431961DA682243DA60ECE7002C01D079
:10186000F120E8E7F220E6E700040040FF8FFFFFE9
:1018700010B5154B1B68002B05D0134A1368013BAC
:101880001360002B10D0114B1B889BB2002B0AD089
:101890000E4A1388013B9BB21380002B03D10C4BE3
:1018A0001B68002B07D010BD0A4B188880B213218B
:1018B00000F031FCE7E7BFF34F8F074A074BDA60D0
:1018C000BFF34F8FC046FDE7B4050020AC050020F4
:1018D00030010020340100200400FA0500ED00E092
:1018E00010B596B0334C1022210012A801F052FA24
:1018F0002100103110220EA801F04CFA21002031F5
:1019000010220AA801F046FA21003031102206A860
:1019100001F040FA284B00930D23012212A9022066
:1019200000F03CFC002802D0472016B010BD224B2E
:101930001888224B0593012304930F33039300234C
:10194000029301931233009322330EAA022100F076
:1019500064FC002801D04720E7E7174B1888184B94
:101960000593012304930F33039300230293019300
:1019700012330093103B0AAA022100F04EFC00280B
:1019800001D04720D1E70C4B18880E4B059301235B
:101990000493102203920293002301930E330093C9
:1019A000263306AA022100F038FC0028BDD04720CB
:1019B000BBE7C04668380008F6050020C0050020D7
:1019C000F4050020F005002010B588B00622194962
:1019D000403106A801F0DEF901F044F806AA06211C
:1019E000002000F00CFD00F0BBFB12236B4405AAA5
:1019F00016216944012000F05FFA0F4B1B68029327
:101A0000012403940023019310330093093B002227
:101A10000021012000F0F1FAFFF762FF042101200C
:101A200000F01EFD054B1C7096229200044B1A809C
:101A300008B010BD683800083000002034000020D5
:101A4000AC05002010B58CB008AC0D220C49483113
:101A5000200001F09FF90021002000F0DDFE0023AE
:101A6000069305930493039302940D22019200932D
:101A700000220021002000F05BFA0CB010BDC0462F
:101A80006838000810B50378102B09D0112B15D138
:101A90004078012801D9F02011E0FFF7B3FE0EE0F5
:101AA0000020FFF791FB44B20120FFF78DFB4000BF
:101AB0002043C0B2032802D9F42000E0FE2010BD6C
:101AC00000B585B00F236B441870054A1188054A8C
:101AD000108800930123002200F00AFC05B000BD2D
:101AE000F4050020F605002070B51C4B1D78272D4D
:101AF0001ED86B18282B0BDC0E000023B34218D223
:101B0000EA18174CA45CC25C944203D10133F5E798
:101B10002826F2E7FA204000FEF7CAFB114B18888E
:101B200080B2132100F0F7FA032000F0B0FA05E0CC
:101B300000236A18282A02DC084B1A7070BD0021A5
:101B4000094A11600131094A1170C018FFF79AFF64
:101B5000FFF7B6FFFFF734FEF0E7C046BE050020F2
:101B6000C405002034010020B4050020F205002047
:101B700000B583B002000B000449098804480088BE
:101B80000092002200F0B4FB03B000BDC0050020AD
:101B9000F605002010B5194B1B880133984205D07B
:101BA000174B1B880233984220D010BD154B1B6881
:101BB000002B01D0022908D0022902D113785A2B18
:101BC0000DD01000FFF790FFEFE71378A52BF3D1AE
:101BD00053785A2BF0D100220A4B1A60E5E753786C
:101BE000A52BEED1084A074B1A60DEE75378DB07D6
:101BF000DBD50122054B1A70D7E7C046F00500205F
:101C0000C0050020F80500208813000036010020E0
:101C10000122024B1A60024B1980704730010020EC
:101C20003401002010B50023124A1360124A1370C9
:101C3000124A1370124A1370124A13600121124A99
:101C40001170124A137004E00021114AD15401337B
:101C5000DBB2272BF8D928210D48FFF789FF002296
:101C600002210C48FEF704FD962292000A4B1A80CE
:101C700010BDC04630010020F2050020BF05002045
:101C8000BE050020B40500203400002036010020ED
:101C9000C405002000040048AC05002030B583B026
:101CA00004000378042B01D003B030BD43783E2BF1
:101CB0000AD0FF2B1DD0052BF6D1FFF7B3FF002173
:101CC000002000F005FAEFE7C378012BECD10022E9
:101CD0001E4B1A8009306379A17909021943FFF775
:101CE00097FF012202211A48FEF7C2FCFFF768FDA8
:101CF000DAE7C27803791B021343164A93421AD0DB
:101D0000154A9342D0D1154B188880B223000A336C
:101D1000E279217A090211430193637A0093FE2349
:101D2000002200F027FB617A0139C9B220000B3094
:101D3000FFF7DAFEB8E7431D02000A32417AC479A0
:101D4000D87800022043FFF725FFADE7AC0500205F
:101D500000040048010C0000130C000034010020B6
:101D600000B583B0084A91690123194391619269D2
:101D700013400193019B0022002101204042FEF705
:101D8000A5FA03B000BDC046001002407047FEE750
:101D90007047704710B5FEF77DFA024A13680133A9
:101DA000136010BD3801002010B50120FEF78CFC37
:101DB0002021C0235B00014AD15010BD00E100E0AA
:101DC0007047000010B580208001FEF77DFC0122E5
:101DD000014B1A7010BDC0463701002010B5334BBF
:101DE0001B699B0703D5314BDB689B0719D42F4B2D
:101DF0001B691B072DD52D4BDB681B0729D52B4AEB
:101E0000136908218B4313619023DB051B695B0772
:101E100013D4536AF533FF33D3630020FFF7E2F99D
:101E200036E0224B1A6902218A431A615A6AF53256
:101E3000FF325A63FFF71CFD2AE0002208219020A0
:101E4000C005FEF715FC194AD36808218B43D360FF
:101E5000E3E7164B1B69DB061AD5144BDB68DB0680
:101E600016D5124A136910218B431361104B1B695D
:101E7000DB070ED4012208399020C005FEF7F8FBDD
:101E80000A4A536AF533FF3313640120FFF7AAF9B6
:101E900010BD002208219020C005FEF7E9FB034A8F
:101EA000D36810218B43D360EFE7C04600040040A5
:101EB0000004004870477047F0B58DB00F000092E5
:101EC000019305AD287003AE07220021300000F019
:101ED00006FD06AC18220021200000F000FD3F2383
:101EE00023804B336380A560893BE3602661063322
:101EF00063610021200000F0DBFB002815DB03AB51
:101F00001878002812D11A00039803021B0C3B809A
:101F1000D17813791B020B4300990B8053681B0285
:101F20001B0C019A1380002000E0FF200DB0F0BDD3
:101F3000F0B595B000931AAB1E781BAB1F781DABA4
:101F40001C786B46D98001AB1A803B190E33282BC5
:101F500002D9422015B0F0BD03AD287002226B46B5
:101F6000991D0D20684400F0B6FC022201A90F2043
:101F7000684400F0B0FC6B461B786B71AE71EF717A
:101F80003A001C9905A800F0A6FC3B000833DBB220
:101F9000EC540937FFB2E81922001E9900F09BFCAF
:101FA000E419E4B2281902221FA900F094FCA01C35
:101FB000C0B22818022220A900F08DFC0434E4B23B
:101FC0000EAE18220021300000F089FC3F23338040
:101FD00044337380B560F4604C3B6B443361012340
:101FE00073610021300000F063FB002803DB37231E
:101FF0006B441878AEE7FF20ACE7F0B5CE46474615
:1020000080B591B00192994618AB1B78984619ABF0
:102010001F781A9C1BAB1E7803AD287069701022C4
:10202000019902AB981D00F056FC4B46AB74434639
:10203000EB742F75192302AA944663441C70220A7C
:102040005A70220C9A70240EDC706E760AAC18223C
:102050000021200000F043FC3F23238047336380AE
:10206000A5606C3BE36002AB033323610123636132
:102070000021200000F01CFB002806DB02ABD87812
:1020800011B00CBC90469946F0BDFF20F8E730B582
:1020900089B001AD287002AC18220021200000F0A8
:1020A0001EFC3F2323804C336380A5608A3BE360A2
:1020B0006A460332226163610021200000F0F8FAD1
:1020C000002803DB6B46D87809B030BDFF20FBE762
:1020D00030B589B001AD6870297002AC18220021BA
:1020E000200000F0FCFB3F2323804D336380A5607C
:1020F0008A3BE3606B460333236101236361002164
:10210000200000F0D5FA002803DB6B46D87809B030
:1021100030BDFF20FBE730B589B001AD2880A97044
:1021200002AC18220021200000F0D9FB3F232380BD
:1021300054336380A560903BE3600C3363606B466F
:1021400003332361012363610021200000F0B0FA12
:10215000002803DB6B46D87809B030BDFF20FBE7D1
:1021600010B588B002AC18220021200000F0B7FBA7
:102170003F2323800223FF3363806B4607332361B1
:10218000012363610021200000F092FA002803DBA4
:102190006B46D87908B010BDFF20FBE770B58CB056
:1021A00016001D006B461870012831D01024220043
:1021B0006B46581C00F08FFB631C6A46D654A31C68
:1021C000D554E51C05AE03220021300000F087FB4A
:1021D00006AC18220021200000F081FB3F23238061
:1021E000C33363806B46A360E560266103236361AC
:1021F0000021200000F05CFA00280BDB05AB18780A
:10220000002808D1059B1B021B0C109A138002E0CA
:102210000224CCE7FF200CB070BDF0B5DE46574677
:102220004E464546E0B591B00C0000929B461AAB75
:102230001B789A461BAB1B7899461CAB1B789846BB
:102240001DAB1F781EAB1E786B46991D088002AD32
:102250000222280000F03FFBAC70012C3ED010247D
:1022600002AD220000990B20684400F034FBE31C0F
:102270005A46EA54231D5246EA54631D4A46EA541C
:10228000A31D4246EA54E31DEF540133EE540934D2
:1022900009AF03220021380000F021FB0AAE18220A
:1022A0000021300000F01BFB3F233380C5337380D7
:1022B000B560F4603761023BFF3B73610021300081
:1022C00000F0F6F900280BDB09AB1878002808D1DC
:1022D000099B1B021B0C1F9A138002E00134BFE70D
:1022E000FF2011B03CBC90469946A246AB46F0BDDB
:1022F00070B5AAB016001C006B46D88001AB1980DF
:10230000A31D802B02DD42202AB070BD03AD022246
:102310006B46991D280000F0DEFA022201A90E206A
:10232000684400F0D8FA2E716C7122002E991220A8
:10233000684400F0D0FA0634E4B224AE182200213A
:10234000300000F0CCFA3F233380C7337380B56090
:10235000F460773B6B4433610123736100213000EB
:1023600000F0A6F9002803DB8F236B441878CBE735
:10237000FF20C9E7F0B5ABB017001E0030AB1C78EA
:102380006B46D88001AB1980E31D802B02DD422013
:102390002BB0F0BD03AD02226B46991D280000F062
:1023A0009AFA022201A90E20684400F094FA2F71D3
:1023B0006E71AC71220031991320684400F08BFAE1
:1023C0000734E4B224AE18220021300000F087FA6E
:1023D0003F233380E7337380B560F460973B6B44F1
:1023E0003361012373610021300000F061F900289E
:1023F00003DB8F236B441878CAE7FF20C8E770B56A
:10240000A8B00C001100A31C802B02DD422028B0D4
:1024100070BD01AD28706C7022006B46981D00F0F5
:102420005AFA0234E4B222AE18220021300000F041
:1024300056FA3F233380333B7380B560F4607B33BF
:102440006B443361012373610021300000F030F9E7
:10245000002803DB87236B441878D8E7FF20D6E7F2
:1024600030B589B001AD2870697002AC1822002126
:10247000200000F034FA3F232380303B6380A560C6
:102480000D3BE3606B46033323610123636100214D
:10249000200000F00DF9002803DB6B46D87809B066
:1024A00030BDFF20FBE710B504004160FEF7D8FE09
:1024B000206010BD10B50400FEF7D2FE2368C31AD9
:1024C0000133606898428041404210BD30B583B00E
:1024D00005000C0007E001A9200000F0EFF90199C8
:1024E000280000F0DDF9200000F0CDF90028F2D03E
:1024F00003B030BD10B50A4800F0C2F9094800F039
:10250000BFF9002408E08C2363430749C918044835
:1025100000F0C6F90134E4B2042CF4D910BDC04671
:10252000340600203C0600203C010020037A042BE6
:1025300001D001207047827A8433C35C033B9A4206
:1025400001D00220F6E70020F4E7000010B5A2B0A9
:102550000023019300F005FB1A4800F094F913E002
:10256000184C01A9200000F0A9F900F0F5FA019833
:102570000830FFF793FB00F0F4FA0199124800F0DD
:102580008FF9200000F07FF90028E9D00F4B1B786D
:10259000002B12D000F07AFA00280BD0802202A97A
:1025A0000B4800F07DFAC0B20028F3D002A8FFF774
:1025B00075FBEFE70022054B1A7000F0CDFA22B050
:1025C00010BDC0463C06002034060020F803002061
:1025D0004406002010B5024800F055F910BDC04671
:1025E0003C06002010B582B00023019300F03AFBB6
:1025F00005E02100194800F04CF900F033FB00F031
:1026000045FA002828D0154800F03DF900281ED1D1
:1026100001A9124800F052F90199083180221048AE
:1026200000F03EFAC0B200280CD0019C8823E05490
:102630002000FFF77BFF0028DBD12100094800F0D4
:102640002FF9DAE70199054800F023F9D5E70122CF
:10265000054B1A7000F006FB02B010BD34060020D6
:10266000440600203C060020F803002010B59BB271
:1026700092B200F0D3FA10BD30B583B014001D0043
:102680008905890D8002084301A908808A70012309
:102690006A46137003226B46581C00F01CF9230095
:1026A000042229006846FFF7E1FF03B030BD0000B7
:1026B000F0B587B005000F000222835E9B059B0DDD
:1026C0000288920213439CB2504B18680A2100F012
:1026D000CFFA06000023039301A800F0D1F82A7B6B
:1026E00069882888AB68FFF7C7FF002F4DD1002EFF
:1026F00000D10136310004A8FFF7D5FE04A8FFF78A
:10270000D9FE002859D1FFF765FF0028F6D100F067
:1027100028FA03A93E4800F0D1F803990B7A042B5C
:1027200005D001A800F0BCF800F016FAE6E70E00AC
:102730000B368823CA5CD01E4B7A0F2B31D012D9AE
:10274000102B3AD03E2B03D1CB7A6868834249D014
:1027500001A800F0A5F82F4800F095F800284CD10A
:1027600000F0FAF9CAE70E2BF2D10E7B4B7B1B026D
:1027700033439C4221D10E316B69063A9A4200DD07
:102780001A006A61286900F0A6F80399214800F050
:1027900080F801A91E48FFF799FE00F0DDF900203E
:1027A00013E04F7B8B7B1B023B439C4205D16B6844
:1027B0000F2B0CD0CB7A002BCAD001A91448FFF7FD
:1027C00085FE00F0C9F90120404207B0F0BD6B69F9
:1027D0000200984200DD1A006A612869310000F0A9
:1027E0007AF8D2E76B69043A9A4200DD1A006A610E
:1027F0000C31286900F06FF8C7E76946044800F01B
:102800005DF80099034800F04BF8A9E7EC370008A1
:102810003C0600203406002070B590B004000E0085
:1028200002AD20220021280000F059F82C701F2C46
:1028300022D8220031000920684400F04CF80AAC8C
:1028400018220021200000F04AF8082323800133D9
:10285000638002ABA3602023E3606B4607332361F0
:102860000123636100212000FFF722FF002805DB20
:102870006B46D87910B070BD1F22DBE7FF20F9E767
:102880000060406070470368C01A42424241D0B2C3
:10289000704703680B60486001600B6859607047BF
:1028A000086043684B6041604B681960704743683B
:1028B00002681A60036842685A60704710B50C00DD
:1028C00003680B600068FFF7F2FF226800231360C3
:1028D0002268536010BD10B500F05CFA10BD10B551
:1028E00000F061FA10BD0000F0B58DB002684A4BEF
:1028F0009A4201D00DB0F0BD484B59698022920236
:102900001143596159691140009100995969114366
:1029100059615969114001910199596911435961EE
:1029200059691140029102995969114359615969D4
:102930001140039103995969114359615969114033
:102940000491049959691143596159690A400592E2
:10295000059A9A69802149010A439A619B690B4053
:102960000693069B022507950127089709970024DF
:102970000A940B9407A99020C005FDF727FD0022BB
:1029800002219020C005FDF773FE202307930895D0
:10299000099503260A960B9407A99020C005FDF718
:1029A00015FD40230793089509940A960B9407A9EF
:1029B0009020C005FDF70AFD802307930895099430
:1029C0000A960B9407A99020C005FDF7FFFC102381
:1029D0000793089709970A960B9407A99020C005BA
:1029E000FDF7F4FC012210219020C005FDF740FE08
:1029F00007970B4B089309940A960B9407A990200C
:102A0000C005FDF7E3FC002203210520FDF75EFC75
:102A10000520FDF797FC6DE70030014000100240F3
:102A20000000111010B50D480D4B036082235B00B0
:102A3000436000238360E022D200C26003614361EF
:102A400080229200826103624362FA3AFF3AC262D4
:102A50000132C2618362FDF75FFF10BD44060020B2
:102A60000030014010B59024E4050022022120002E
:102A7000FDF7FEFD0520FDF71BFC012202212000D1
:102A8000FDF7F6FD0520FDF713FC10BD10B5012183
:102A90009020C005FDF7D8FD012800D0002010BD12
:102AA000F0B58BB003900F001500FF221F2302A981
:102AB0008C4663441A7008AC0B23237000236370A8
:102AC000A370E3702371002210219020C005FDF750
:102AD000CFFD06AE0F2300930A3B3200210003987E
:102AE000FEF75CF83378022B09D000240122102174
:102AF0009020C005FDF7BCFD0023059326E006A944
:102B00000A791202CB7813431AD0ADB2AB4200D887
:102B10001D00002410E01E2602AB9C4666440F23D5
:102B200000930E3B32001F2161440398FEF736F8F4
:102B300033783B550134E4B2A3B29D42EBD8D5E7DC
:102B40000024D3E7C046059B01330593059B012B69
:102B5000F8DD20000BB0F0BD10B50520FDF7F2FB4D
:102B600010BD10B50520FDF701FC10BDF0B5CBB0D0
:102B70000390059104921E0050AB1F7848AD0A23C4
:102B80002B7000226A70AA70EA702A7146ACA033DA
:102B900023706270A270E2702271FFF7E2FF0022E0
:102BA00010219020C005FDF763FD0F2300930A3B21
:102BB000220029000398FDF7F1FF2378022B27D18B
:102BC00046AB5A78F3199A4225DB002E0DD1002F1F
:102BD00014D10024012210219020C005FDF748FDEA
:102BE000FFF7BAFF20004BB0F0BDB3B20F22009246
:102BF00006AA05990398FDF7D1FFE8E7BBB20F22BB
:102C0000009206AA04990398FDF7C8FF0024E1E7A3
:102C100001246442DEE702246442DBE7F0B585B0BC
:102C200007000E0015001C000C4B18680A2100F06C
:102C30001FF8010002A8FFF736FCEBB2E2B20092E7
:102C4000320039000648FFF791FF002804D002A89F
:102C5000FFF730FC0028F0D005B0F0BDEC370008DD
:102C6000440600200122014B5A61704700040140D4
:102C7000002243088B4274D303098B425FD3030ABB
:102C80008B4244D3030B8B4228D3030C8B420DD3CE
:102C9000FF22090212BA030C8B4202D3121209025C
:102CA00065D0030B8B4219D300E0090AC30B8B429A
:102CB00001D3CB03C01A5241830B8B4201D38B0348
:102CC000C01A5241430B8B4201D34B03C01A5241ED
:102CD000030B8B4201D30B03C01A5241C30A8B4230
:102CE00001D3CB02C01A5241830A8B4201D38B021B
:102CF000C01A5241430A8B4201D34B02C01A5241BF
:102D0000030A8B4201D30B02C01A5241CDD2C30930
:102D10008B4201D3CB01C01A524183098B4201D3AC
:102D20008B01C01A524143098B4201D34B01C01A97
:102D3000524103098B4201D30B01C01A5241C3080F
:102D40008B4201D3CB00C01A524183088B4201D37E
:102D50008B00C01A524143088B4201D34B00C01A6A
:102D60005241411A00D20146524110467047FFE7D6
:102D700001B5002000F006F802BDC0460029F7D0DA
:102D800076E770477047C046014B18687047C046E9
:102D900038000020002310B59A4200D110BDCC5C51
:102DA000C4540133F8E703008218934200D17047FE
:102DB00019700133F9E70023C25C0133002AFBD10B
:102DC000581E704730B514009BB005001A00002C47
:102DD00005DA8B230360012040421BB030BD822303
:102DE00068469B0083810023009104919C4200D09F
:102DF000631E02930593012369465B42CB81280041
:102E00001E9B00F079F8431C01DA8B232B60002C09
:102E1000E3D00023009A1370DFE7000007B50093AA
:102E200013000A00010002480068FFF7CBFF0EBD47
:102E300038000020F0B58E6885B007000C000392C2
:102E400001939E4239D890238A89DB001A4234D0FC
:102E50000325096923685B1A0293636902985D433D
:102E6000EB0F5D19019B6D1001331B18AB4200D9AC
:102E70001D00530532D52900380000F031FB061E35
:102E800009D10C233B6040230120A2894042134317
:102E9000A38105B0F0BD029A2169FFF77BFFA389EA
:102EA000144A1A4080231343A381029B2661F6181B
:102EB00026606561019EED1AA560019BB34200D2B8
:102EC0001E0032000399206800F0ADFAA3680020CC
:102ED0009B1BA36023689E192660DAE72A0038004E
:102EE00000F05CFB061EE0D12169380000F0AEFA6C
:102EF000C7E7C0467FFBFFFFF0B59FB00290059388
:102F00008B890F0016001B0611D50B69002B0ED103
:102F1000402100F0E5FA38603861002805D10C2323
:102F2000029A013813601FB0F0BD40237B6100237B
:102F300006AD6B6120336B761033AB7634002378AB
:102F4000002B47D1A31B04930DD0A31B32003900E3
:102F50000298FFF76FFF431C00D1B5E06A69049B3C
:102F6000944663446B612378002B00D1ACE00122CE
:102F7000002352426A6002A95432521801342B6075
:102F8000EB60AB601370AB65584E052221783000C2
:102F900000F03EFA621C002820D12968CB0604D537
:102FA000532302AE20309B1918700B0704D553230E
:102FB0002B2002AE9B19187023782A2B16D00020E4
:102FC0000A21099B2278303A092A55D9002815D0C0
:102FD000099313E0252BB5D00134B0E70123801B02
:102FE0008340296814000B432B60CDE7059B181D17
:102FF0001B680590002B39DB0993140023782E2BD6
:103000000BD16378621C2A2B3ED1059B02341A1D1A
:103010001B680592002B34DB0793354E2178032281
:10302000300000F0F5F9002806D04023801B8340D3
:103030002A68013413432B60217806222D48661C30
:10304000297600F0E5F9002846D02B4B002B2FD134
:103050002968059B0722C90528D59B189343083387
:1030600005936B69039A9B186B6167E75B42EB60A2
:1030700002230B432B60C0E74B4301349B18012014
:10308000A0E701235B42C7E7002314000A201A00CF
:103090006B6021783039092903D9002BBDD0079204
:1030A000BBE74243013452180123F2E70733D5E767
:1030B00005AB00933A00114B2900029800E000BFD5
:1030C0000390039B0133CCD1BB890B985B0600D4E2
:1030D00029E70120404226E705AB00933A00074B61
:1030E0002900029800F07AF8EAE7C046BD380008E7
:1030F000C3380008C738000800000000352E00085B
:10310000F7B5150001938A680B6900900C00934293
:1031100000DA130022002B6043321278002A01D01B
:1031200001332B6023689B0602D52B6802332B608A
:10313000062723681F4027D0230043331B785A1EDD
:1031400093412268920630D42200019943320098BC
:10315000089EB047431C25D0062320682A68E168F2
:1031600003400025042B03D18D1AEB43DB171D40D0
:10317000A3682269934201DD9B1AED180027BD4226
:1031800020D1002010E00137E3682A689B1A9F4293
:10319000D2DA22000123193201990098089EB04723
:1031A000431CF0D101204042FEBD3020E1184331E4
:1031B000087021005A1C45310978A21843320233A5
:1031C0001170C1E7220001231A3201990098089E6C
:1031D000B047431CE6D00137D1E70000F0B58BB013
:1031E00006920A0043320793059004920A7E0C006F
:1031F000109B6E2A00D18FE017D8632A2CD008D8F4
:10320000002A00D199E0582A54D026004236327064
:1032100029E0642A01D0692AF7D121681A680806D2
:1032200023D5111D1960156825E0732A00D188E0A7
:1032300008D86F2A29D0702AE7D1202209680A43CA
:10324000226003E0752A20D0782ADED1220078217E
:10325000453211706C4A30E00E001A684236111D7A
:10326000196013683370012379E04906D9D5111D1F
:1032700019600023D55E002D03DA2D23049A6D42D8
:103280001370624B0A2703932FE020681968050624
:1032900003D5081D18600D6805E04006F9D50D68D6
:1032A000081D1860ADB2594B082703936F2A18D038
:1032B0000A2716E045310A70544A03921A682168B9
:1032C000101D18601568080622D5CB0702D52023EB
:1032D000194321601027002D03D1202322689A432F
:1032E00022602300002243331A706368A360002B1E
:1032F0005CDB0422216891432160002D58D1049E9B
:10330000002B64D02600039B42361B7833705EE0AE
:103310004806DAD5ADB2D8E709681A68080605D5B7
:10332000111D1960136862691A6006E04906F7D535
:10333000111D19601368A28A1A800023049E23615C
:1033400054E01A68111D1960166800216268300087
:1033500000F05EF8002801D0801B60606368236184
:103360000023049A137041E02369320006990598FE
:10337000079DA847431C43D0236800259B070FD413
:10338000099BE06898423DDA18003BE022000123E7
:10339000193206990598079EB047431C30D0013575
:1033A000E368099A9B1A9D42F0DBE9E7002DA9D05A
:1033B000049E28003900FFF7E1FC039B013E5B5CA3
:1033C000280033703900FFF753FC051EF1D1082F98
:1033D00009D12368DB0706D563682269934202DCC2
:1033E0003023013E3370049B9B1B2361079B09AA7A
:1033F00000932100069B0598FFF782FE431CB3D182
:10340000012040420BB0F0BDDF380008CE38000884
:10341000C9B28218904201D10020704703788B42D4
:10342000FBD00130F6E710B5884202D98B189842DC
:1034300008D300239A4207D0CC5CC4540133F9E787
:103440008B5C8354013AFBD210BD000070B50500BF
:10345000002910D00C1F2368002B00DAE418280084
:1034600000F0D4F81D4A1368002B05D16360146086
:10347000280000F0CCF870BDA34209D9216860187B
:103480008342F3D118685B6841182160EEE71300AE
:103490005A68002A01D0A242F9D919685818A042E6
:1034A0000BD120680918581819608242E0D11068C1
:1034B0005268411819605A60DAE7A04202D90C2319
:1034C0002B60D5E721686018824203D110685268EA
:1034D0004118216062605C60CAE7C046FC030020BE
:1034E000032370B5CD1C9D43083506000C2D1ED25C
:1034F0000C25A9421DD8300000F088F8254A146830
:103500002100002919D1244C2368002B03D130005D
:1035100000F06AF820602900300000F065F8431CD4
:103520002CD10C233000336000F071F803E0002D43
:10353000DFDA0C233360002070BD0B685B1B1AD4EC
:103540000B2B03D90B60CC18256003E08C420ED105
:1035500063681360300000F05AF8200007220B3037
:10356000231D9043C31AE7D05A42E250E4E74B6868
:1035700063600C00EEE70C004968C2E70323C41C3B
:103580009C43A042E0D0211A300000F02DF8431CEB
:10359000DAD1C6E7FC03002000040020F8B50700DC
:1035A0000D001600002905D11100FFF799FF040056
:1035B0002000F8BD002A03D1FFF748FF3400F7E7E9
:1035C00000F026F82C008642F2D931003800FFF7CF
:1035D00087FF041EECD029003200FFF7DBFB290037
:1035E0003800FFF733FFE3E7002370B5064C050012
:1035F00008002360FDF75EFC431C03D12368002B09
:1036000000D02B6070BDC046040400207047704796
:103610000B1F1B68181F002B01DA0B58C0187047CE
:103620002E2E2F73797374656D2F7372632F7374DD
:103630006D333266302D68616C2F73746D33326672
:103640003078785F68616C5F636F727465782E6341
:10365000000000002E2E2F73797374656D2F737226
:10366000632F73746D333266302D68616C2F737401
:103670006D3332663078785F68616C5F6770696F50
:103680002E63000002030405060708090A0B0C0D4F
:103690000E0F10100102030405060708090A0B0C9F
:1036A0000D0E0F10000000000102030401020304CC
:1036B000060708092E2E2F73797374656D2F7372A8
:1036C000632F73746D333266302D68616C2F7374A1
:1036D0006D3332663078785F68616C5F7370692E25
:1036E0006300000061626F727428292C206578697C
:1036F00074696E672E2E2E006173736572745F702D
:103700006172616D2829206661696C65643A206682
:10371000696C6520222573222C206C696E6520253A
:10372000640A0000537461636B206672616D653AD0
:103730000A000000205230203D2020253038580A51
:1037400000000000205231203D2020253038580A4A
:1037500000000000205232203D2020253038580A39
:1037600000000000205233203D2020253038580A28
:103770000000000020523132203D20253038580A08
:1037800000000000204C52203D2020253038580AEF
:1037900000000000205043203D2020253038580AEA
:1037A0000000000020505352203D20253038580A98
:1037B000000000004D6973630A000000204C522F86
:1037C0004558435F52455455524E3D202530385898
:1037D0000A0000005B486172644661756C745D0AA2
:1037E000000000000200080004000100E8030000DF
:1037F0000123456789ABCDEFFEDCBA9876543210D1
:10380000F0E1D2C3346561646133383861373230F6
:10381000343161316233333537633133306362348D
:1038200061613233000000003031323334353637D5
:1038300038394142434445464748494A4B4C4D4E2E
:103840004F505152535455565758595A61626364F8
:1038500065666768696A6B6C6D6E6F7071727374A0
:1038600075767778797A0000669A0C200008969E23
:10387000E2119EB1E0F273D9669A0C200008969E80
:10388000E2119EB1E1F273D9669A0C200008969E6F
:10389000E2119EB1E3F273D9669A0C200008969E5D
:1038A000E2119EB1E2F273D9000B00E18002000048
:1038B00009496E6469676F2D546F6F7468232D30EA
:1038C0002B2000686C4C0065666745464700303128
:1038D0003233343536373839414243444546003077
:1038E00031323334353637383961626364656600A6
:1038F00078563412AC0000200000000000000000E8
:1039000000000000010203040607080900127A0003
:10391000000400480000004800000048000400487F
:1039200040E2010001FFFFFF3C000020000000001A
:103930000000000000000000000000000000000087
:103940000000000000000000000000000000000077
:103950000000000000000000000000000000000067
:103960000000000000000000000000000000000057
:103970000000000000000000000000000000000047
:1039800000000000000000000000000032547698A3
:04000005080001D915
:00000001FF
